{
  "contractName": "SmartParking",
  "abi": [
    {
      "inputs": [],
      "payable": false,
      "stateMutability": "nonpayable",
      "type": "constructor"
    },
    {
      "anonymous": false,
      "inputs": [
        {
          "indexed": false,
          "internalType": "uint256",
          "name": "id",
          "type": "uint256"
        },
        {
          "indexed": false,
          "internalType": "bool",
          "name": "completed",
          "type": "bool"
        }
      ],
      "name": "SpotCompleted",
      "type": "event"
    },
    {
      "anonymous": false,
      "inputs": [
        {
          "indexed": false,
          "internalType": "uint256",
          "name": "id",
          "type": "uint256"
        },
        {
          "indexed": false,
          "internalType": "string",
          "name": "content",
          "type": "string"
        },
        {
          "indexed": false,
          "internalType": "bool",
          "name": "completed",
          "type": "bool"
        }
      ],
      "name": "SpotCreated",
      "type": "event"
    },
    {
      "constant": true,
      "inputs": [],
      "name": "spotCount",
      "outputs": [
        {
          "internalType": "uint256",
          "name": "",
          "type": "uint256"
        }
      ],
      "payable": false,
      "stateMutability": "view",
      "type": "function"
    },
    {
      "constant": true,
      "inputs": [
        {
          "internalType": "uint256",
          "name": "",
          "type": "uint256"
        }
      ],
      "name": "spots",
      "outputs": [
        {
          "internalType": "uint256",
          "name": "id",
          "type": "uint256"
        },
        {
          "internalType": "string",
          "name": "content",
          "type": "string"
        },
        {
          "internalType": "bool",
          "name": "completed",
          "type": "bool"
        }
      ],
      "payable": false,
      "stateMutability": "view",
      "type": "function"
    },
    {
      "constant": false,
      "inputs": [
        {
          "internalType": "string",
          "name": "_content",
          "type": "string"
        }
      ],
      "name": "createSpot",
      "outputs": [],
      "payable": false,
      "stateMutability": "nonpayable",
      "type": "function"
    },
    {
      "constant": false,
      "inputs": [
        {
          "internalType": "uint256",
          "name": "_id",
          "type": "uint256"
        }
      ],
      "name": "toggleCompleted",
      "outputs": [],
      "payable": false,
      "stateMutability": "nonpayable",
      "type": "function"
    }
  ],
  "bytecode": "0x60806040526000805534801561001457600080fd5b5060408051808201909152601681527f77656c636f6d6520746f206f7572207765627369746500000000000000000000602082015261005b906001600160e01b0361006016565b61021f565b60008054600190810180835560408051606081018252828152602080820187815282840187905293865284815291909420845181559151805192936100ad93908501929190910190610184565b5060408201518160020160006101000a81548160ff0219169083151502179055509050507ff1bfba65248afd71c7cc462f14b2511c71cecf5532dd8fe494490e450456e47a600054826000604051808481526020018060200183151515158152602001828103825284818151815260200191508051906020019080838360005b8381101561014557818101518382015260200161012d565b50505050905090810190601f1680156101725780820380516001836020036101000a031916815260200191505b5094505050505060405180910390a150565b828054600181600116156101000203166002900490600052602060002090601f016020900481019282601f106101c557805160ff19168380011785556101f2565b828001600101855582156101f2579182015b828111156101f25782518255916020019190600101906101d7565b506101fe929150610202565b5090565b61021c91905b808211156101fe5760008155600101610208565b90565b6106038061022e6000396000f3fe608060405234801561001057600080fd5b506004361061004c5760003560e01c8063145a8bdf14610051578063455f5024146100f8578063b57216e914610117578063ce945b6c146101bd575b600080fd5b61006e6004803603602081101561006757600080fd5b50356101d7565b604051808481526020018060200183151515158152602001828103825284818151815260200191508051906020019080838360005b838110156100bb5781810151838201526020016100a3565b50505050905090810190601f1680156100e85780820380516001836020036101000a031916815260200191505b5094505050505060405180910390f35b6101156004803603602081101561010e57600080fd5b5035610286565b005b6101156004803603602081101561012d57600080fd5b81019060208101813564010000000081111561014857600080fd5b82018360208201111561015a57600080fd5b8035906020019184600183028401116401000000008311171561017c57600080fd5b91908080601f0160208091040260200160405190810160405280939291908181526020018383808284376000920191909152509295506103e6945050505050565b6101c561050a565b60408051918252519081900360200190f35b600160208181526000928352604092839020805481840180548651600296821615610100026000190190911695909504601f810185900485028601850190965285855290949193929091908301828280156102735780601f1061024857610100808354040283529160200191610273565b820191906000526020600020905b81548152906001019060200180831161025657829003601f168201915b5050506002909301549192505060ff1683565b61028e610510565b60008281526001602081815260409283902083516060810185528154815281840180548651600296821615610100026000190190911695909504601f810185900485028601850190965285855290949193858401939092908301828280156103375780601f1061030c57610100808354040283529160200191610337565b820191906000526020600020905b81548152906001019060200180831161031a57829003601f168201915b50505091835250506002919091015460ff1615156020918201526040808301805115905260008581526001808452919020835181558383015180519495508594919361038893850192910190610533565b50604091820151600291909101805460ff1916911515919091179055818101518151848152901515602082015281517f25b4275335fd8d05aeb8c079d8a7d619732d80046551c08cdd1b16e9f82f84a9929181900390910190a15050565b600080546001908101808355604080516060810182528281526020808201878152828401879052938652848152919094208451815591518051929361043393908501929190910190610533565b5060408201518160020160006101000a81548160ff0219169083151502179055509050507ff1bfba65248afd71c7cc462f14b2511c71cecf5532dd8fe494490e450456e47a600054826000604051808481526020018060200183151515158152602001828103825284818151815260200191508051906020019080838360005b838110156104cb5781810151838201526020016104b3565b50505050905090810190601f1680156104f85780820380516001836020036101000a031916815260200191505b5094505050505060405180910390a150565b60005481565b604051806060016040528060008152602001606081526020016000151581525090565b828054600181600116156101000203166002900490600052602060002090601f016020900481019282601f1061057457805160ff19168380011785556105a1565b828001600101855582156105a1579182015b828111156105a1578251825591602001919060010190610586565b506105ad9291506105b1565b5090565b6105cb91905b808211156105ad57600081556001016105b7565b9056fea265627a7a72315820a179d36a74dabb96c74567051a7ba8e43ef385788633454578db18ad4d7218fe64736f6c63430005100032",
  "source": "pragma solidity ^0.5.0;\r\n\r\ncontract SmartParking {\r\n    uint public spotCount = 0;\r\n\r\n    struct Spot {\r\n        uint id;\r\n        string content;\r\n        bool completed;\r\n    }\r\n\r\n    mapping(uint => Spot) public spots;\r\nevent SpotCreated(\r\n    uint id,\r\n    string content,\r\n    bool completed\r\n  );\r\n\r\nevent SpotCompleted(\r\n    uint id,\r\n    bool completed\r\n  );\r\nconstructor() public {\r\n        createSpot(\"welcome to our website\");   \r\n    }\r\n\r\n  \r\n    function createSpot(string memory _content) public {\r\n        spotCount++;\r\n        spots[spotCount] = Spot(spotCount, _content, false);\r\n        emit SpotCreated(spotCount, _content, false);\r\n    }\r\n    \r\n\r\n  function toggleCompleted(uint _id) public {\r\n    Spot memory _task = spots[_id];\r\n    _task.completed = !_task.completed;\r\n    spots[_id] = _task;\r\n    emit SpotCompleted(_id, _task.completed);\r\n  }\r\n    \r\n \r\n\r\n\r\n}\r\n\r\n",
  "sourcePath": "D:\\Bureau\\cours\\GI3\\Blockchain\\Project\\contracts\\SmartParking.sol",
  "compiler": {
    "name": "solc",
    "version": "0.5.16+commit.9c3226ce.Emscripten.clang"
  },
  "schemaVersion": "3.4.3",
  "updatedAt": "2021-12-06T01:02:06.786Z",
  "networkType": "ethereum",
  "devdoc": {
    "methods": {}
  },
  "userdoc": {
    "methods": {}
  }
}