{
  "contractName": "SmartParking",
  "abi": [
    {
      "constant": true,
      "inputs": [],
      "name": "spotCount",
      "outputs": [
        {
          "name": "",
          "type": "uint256"
        }
      ],
      "payable": false,
      "stateMutability": "view",
      "type": "function",
      "signature": "0xce945b6c"
    }
  ],
  "bytecode": "0x608060405260008055348015601357600080fd5b50609e806100226000396000f3fe608060405260043610603f576000357c0100000000000000000000000000000000000000000000000000000000900463ffffffff168063ce945b6c146044575b600080fd5b348015604f57600080fd5b506056606c565b6040518082815260200191505060405180910390f35b6000548156fea165627a7a723058201dfb996a48287f67c8803c84c867e0095354228bda54b22ab5cc0b7f293f646a0029",
  "source": "pragma solidity ^0.5.0;\r\n\r\ncontract SmartParking {\r\n    uint public spotCount = 0;\r\n}\r\n",
  "sourcePath": "D:/Bureau/cours/GI3/Blockchain/Project/contracts/SmartParking.sol",
  "compiler": {
    "name": "solc",
    "version": "0.5.0+commit.1d4f565a.Emscripten.clang"
  },
  "schemaVersion": "3.0.1",
  "updatedAt": "2021-12-04T00:02:34.411Z",
  "devdoc": {
    "methods": {}
  },
  "userdoc": {
    "methods": {}
  }
}